:100000007438115C740E115C7480115C7406115CA0
:100010007453117B7441117B7456117B7445117BB1
:100020007445117B7454117B7448117B7441117BAE
:1000300074C0115C7455117B744E117B7449117B33
:100040007456117B7445117B7452117B7453117B70
:100050007449117B7454117B7459117B116BF590A9
:10006000C2A0C2A1D2A21189C2A222D297C2A0D29A
:10007000A1C2A21189D2A22097F722116BF590D2CA
:10008000A0C2A1D2A21189C2A27CB47BFFDBFEDC9C
:02009000FA2252
:00000001FF
